{
    "contractName": "HelloWorld",
    "abi": [
        {
            "constant": true,
            "inputs": [
                {
                    "name": "lang",
                    "type": "uint8"
                }
            ],
            "name": "sayHello",
            "outputs": [
                {
                    "name": "",
                    "type": "string"
                }
            ],
            "payable": false,
            "stateMutability": "view",
            "type": "function"
        },
        {
            "inputs": [],
            "payable": false,
            "stateMutability": "nonpayable",
            "type": "constructor"
        }
    ],
    "bytecode": "606060405260408051908101604052600b81527f48656c6c6f20576f726c640000000000000000000000000000000000000000006020820152600090805161004b9291602001906100ec565b5060408051908101604052601081527f426f6e6a6f7572204c65204d6f6e646500000000000000000000000000000000602082015260019080516100939291602001906100ec565b5060408051908101604052600a81527f48616c6c6f2057656c7400000000000000000000000000000000000000000000602082015260029080516100db9291602001906100ec565b5034156100e757600080fd5b610187565b828054600181600116156101000203166002900490600052602060002090601f016020900481019282601f1061012d57805160ff191683800117855561015a565b8280016001018555821561015a579182015b8281111561015a57825182559160200191906001019061013f565b5061016692915061016a565b5090565b61018491905b808211156101665760008155600101610170565b90565b6102c0806101966000396000f3006060604052600436106100405763ffffffff7c010000000000000000000000000000000000000000000000000000000060003504166313ee648c8114610045575b600080fd5b341561005057600080fd5b61005e60ff600435166100d5565b60405160208082528190810183818151815260200191508051906020019080838360005b8381101561009a578082015183820152602001610082565b50505050905090810190601f1680156100c75780820380516001836020036101000a031916815260200191505b509250505060405180910390f35b6100dd610282565b60008260028111156100eb57fe5b14156101935760008054600181600116156101000203166002900480601f0160208091040260200160405190810160405280929190818152602001828054600181600116156101000203166002900480156101875780601f1061015c57610100808354040283529160200191610187565b820191906000526020600020905b81548152906001019060200180831161016a57829003601f168201915b5050505050905061027d565b60018260028111156101a157fe5b14156102125760018054600181600116156101000203166002900480601f0160208091040260200160405190810160405280929190818152602001828054600181600116156101000203166002900480156101875780601f1061015c57610100808354040283529160200191610187565b60028054600181600116156101000203166002900480601f0160208091040260200160405190810160405280929190818152602001828054600181600116156101000203166002900480156101875780601f1061015c57610100808354040283529160200191610187565b919050565b602060405190810160405260008152905600a165627a7a72305820fe57dfddcfda4fed384d450e32dc1cbd9ddc7a6df98939561af934df81ef29570029",
    "sourcePath": "c:/Users/fatma/OneDrive/Masaüstü/Projects/Solidity Deneme/HelloWorld.sol",
    "compiler": {
        "name": "solc",
        "version": "0.4.20+commit.3155dd80"
    },
    "functionHashes": {
        "sayHello(uint8)": "13ee648c"
    },
    "gasEstimates": {
        "creation": {
            "codeDepositCost": "140800",
            "executionCost": "infinite",
            "totalCost": "infinite"
        },
        "external": {
            "sayHello(uint8)": "infinite"
        }
    }
}